:1000000046EF01F0EA6A0F0EE96EEF50D8B416EF32
:1000100000F0060E016E006A002EFED7012EFBD7FF
:100020007B0E006E002EFED7EF2EF3D7120016388F
:10003000F00B006E0F0E8A1400108A6E00008A808A
:10004000030E006E002EFED78A9012008150006EC3
:1000500000380F0B016E12000F0E9314F009936E0F
:100060008A8400008A800000F1DF01C016F08A90C7
:1000700000008A8000D000D00000E8DF01C015F049
:100080008A900F0E9314936E1638006EF00E0016C1
:1000900000501510016E52EF00F0939093929394DC
:1000A0008A92DAD701C015F001BEFBD78A9213B04D
:1000B0008A8200008A9400008A901438156E0F0E10
:1000C000151615C016F0B3DF14500F0B156E166E13
:1000D000AEDF1200280E096E0C0E0A6E010E0B6EBA
:1000E000060E0C6E8A908A928A940F0E9314936E69
:1000F0009390939293940F0E0F6E84DF010E086E0F
:100100000850030808E3030E166E91DF050E0F6E0C
:1001100079DF082AF5D7020E166E89DF050E0F6EFD
:1001200071DF086A085003080DE3036A0850090FDD
:10013000E96E000E0320EA6EEFCF14F0136AADDF14
:10014000082AF0D750EF01F0102C01D003D0400E58
:10015000116E01D0116A010E0F5C11261150800939
:10016000126E136A146E99DF12000E50070A07E030
:100170000B0A0AE0060A10E0020A14E018D0010E89
:100180000F6E106EE1DF18D0136A010E146E85DF5A
:10019000020E0F6E37DF10D0010E0F6E020E106EC2
:1001A000D3DF0AD0136A100E146E77DF05D0010E6C
:1001B000136E0EC014F071DF12000F50016A0E5C56
:1001C00003E20EC000F00CD0006A080E106E0E366E
:1001D00000360F50005CD8B0006E0136102EF7D7F5
:1001E0001200200E09A8300E0A6E08C000F008AEFA
:1001F00008D0001E002A00C008F02D0E0A6E098EDD
:100200000980015008C00EF0640E0F6ED6DF00C0EA
:1002100008F0300E01240B6E08C00EF00A0E0F6EAF
:10022000CCDF300E00240D6E300E01240C6E0AC09F
:1002300000F0300E0B5C04E0098209BE098412D084
:100240000AC00BF0200E0A6E300E0C5C04E0098030
:1002500009BE098207D0D8A4098004E10BC00CF0C4
:10026000200E0B6E09B405D009B206D009B007D034
:1002700009D00AC00EF079DF0BC00EF076DF0CC09B
:100280000EF073DF0DC00EF070DF1200F86AD09E22
:10029000C150C00B0F09C16E070EB46E866B1AD722
:1002A000056A010E066E076A020E0F6E010E106ED1
:1002B0004BDF0C0E0E6E59DF200E0E6E56DF07C0A0
:1002C00008F0180E096E8DDF020E086E960E0F6E86
:1002D00099DE082EFBD706500524076E020E0F6E1E
:1002E000010E106E31DF0C0E0E6E3FDF200E0E6E13
:1002F0003CDF07C008F0180E096E73DF020E086EAF
:10030000960E0F6E7FDE082EFBD706C005F007C0E5
:0E03100006F007503108DFE2076AC2D703008B
:020000040030CA
:0E0000003FCC3E1E0087A1000FC00FE00F4056
:00000001FF
;PIC18F4550
;CRC=EF67  CREATED="03-oct.-18 10:36"
